{
  "_format": "hh-sol-artifact-1",
  "contractName": "NBICO",
  "sourceName": "contracts/NBICO.sol",
  "abi": [
    {
      "inputs": [
        {
          "internalType": "address",
          "name": "_tokenAddr",
          "type": "address"
        }
      ],
      "stateMutability": "nonpayable",
      "type": "constructor"
    },
    {
      "anonymous": false,
      "inputs": [
        {
          "indexed": true,
          "internalType": "address",
          "name": "to",
          "type": "address"
        },
        {
          "indexed": true,
          "internalType": "uint256",
          "name": "value",
          "type": "uint256"
        }
      ],
      "name": "BoughtTokens",
      "type": "event"
    },
    {
      "anonymous": false,
      "inputs": [
        {
          "indexed": true,
          "internalType": "address",
          "name": "previousOwner",
          "type": "address"
        },
        {
          "indexed": true,
          "internalType": "address",
          "name": "newOwner",
          "type": "address"
        }
      ],
      "name": "OwnershipTransferred",
      "type": "event"
    },
    {
      "inputs": [],
      "name": "CAP",
      "outputs": [
        {
          "internalType": "uint256",
          "name": "",
          "type": "uint256"
        }
      ],
      "stateMutability": "view",
      "type": "function"
    },
    {
      "inputs": [],
      "name": "Rate_1",
      "outputs": [
        {
          "internalType": "uint256",
          "name": "",
          "type": "uint256"
        }
      ],
      "stateMutability": "view",
      "type": "function"
    },
    {
      "inputs": [],
      "name": "Rate_2",
      "outputs": [
        {
          "internalType": "uint256",
          "name": "",
          "type": "uint256"
        }
      ],
      "stateMutability": "view",
      "type": "function"
    },
    {
      "inputs": [],
      "name": "Rate_3",
      "outputs": [
        {
          "internalType": "uint256",
          "name": "",
          "type": "uint256"
        }
      ],
      "stateMutability": "view",
      "type": "function"
    },
    {
      "inputs": [],
      "name": "START_1",
      "outputs": [
        {
          "internalType": "uint256",
          "name": "",
          "type": "uint256"
        }
      ],
      "stateMutability": "view",
      "type": "function"
    },
    {
      "inputs": [],
      "name": "START_2",
      "outputs": [
        {
          "internalType": "uint256",
          "name": "",
          "type": "uint256"
        }
      ],
      "stateMutability": "view",
      "type": "function"
    },
    {
      "inputs": [],
      "name": "START_3",
      "outputs": [
        {
          "internalType": "uint256",
          "name": "",
          "type": "uint256"
        }
      ],
      "stateMutability": "view",
      "type": "function"
    },
    {
      "inputs": [],
      "name": "START_4",
      "outputs": [
        {
          "internalType": "uint256",
          "name": "",
          "type": "uint256"
        }
      ],
      "stateMutability": "view",
      "type": "function"
    },
    {
      "inputs": [],
      "name": "buyTokens",
      "outputs": [],
      "stateMutability": "payable",
      "type": "function"
    },
    {
      "inputs": [],
      "name": "initial_token_count",
      "outputs": [
        {
          "internalType": "uint256",
          "name": "",
          "type": "uint256"
        }
      ],
      "stateMutability": "view",
      "type": "function"
    },
    {
      "inputs": [],
      "name": "initialize",
      "outputs": [],
      "stateMutability": "nonpayable",
      "type": "function"
    },
    {
      "inputs": [],
      "name": "initialized",
      "outputs": [
        {
          "internalType": "bool",
          "name": "",
          "type": "bool"
        }
      ],
      "stateMutability": "view",
      "type": "function"
    },
    {
      "inputs": [],
      "name": "isActive",
      "outputs": [
        {
          "internalType": "bool",
          "name": "",
          "type": "bool"
        }
      ],
      "stateMutability": "view",
      "type": "function"
    },
    {
      "inputs": [],
      "name": "liquidityAddress",
      "outputs": [
        {
          "internalType": "address",
          "name": "",
          "type": "address"
        }
      ],
      "stateMutability": "view",
      "type": "function"
    },
    {
      "inputs": [],
      "name": "owner",
      "outputs": [
        {
          "internalType": "address",
          "name": "",
          "type": "address"
        }
      ],
      "stateMutability": "view",
      "type": "function"
    },
    {
      "inputs": [],
      "name": "renounceOwnership",
      "outputs": [],
      "stateMutability": "nonpayable",
      "type": "function"
    },
    {
      "inputs": [],
      "name": "tokenAddr",
      "outputs": [
        {
          "internalType": "address",
          "name": "",
          "type": "address"
        }
      ],
      "stateMutability": "view",
      "type": "function"
    },
    {
      "inputs": [],
      "name": "tokenBalanceOf",
      "outputs": [
        {
          "internalType": "uint256",
          "name": "",
          "type": "uint256"
        }
      ],
      "stateMutability": "view",
      "type": "function"
    },
    {
      "inputs": [],
      "name": "tokensAvailable",
      "outputs": [
        {
          "internalType": "uint256",
          "name": "",
          "type": "uint256"
        }
      ],
      "stateMutability": "view",
      "type": "function"
    },
    {
      "inputs": [
        {
          "internalType": "address",
          "name": "newOwner",
          "type": "address"
        }
      ],
      "name": "transferOwnership",
      "outputs": [],
      "stateMutability": "nonpayable",
      "type": "function"
    },
    {
      "inputs": [
        {
          "internalType": "uint256",
          "name": "withDrawAmount",
          "type": "uint256"
        }
      ],
      "name": "withDraw",
      "outputs": [],
      "stateMutability": "nonpayable",
      "type": "function"
    },
    {
      "stateMutability": "payable",
      "type": "receive"
    }
  ],
  "bytecode": "0x608060405260006003556000600460006101000a81548160ff0219169083151502179055503480156200003157600080fd5b5060405162001a2338038062001a2383398181016040528101906200005791906200035b565b620000776200006b620001a960201b60201c565b620001b160201b60201c565b600073ffffffffffffffffffffffffffffffffffffffff168173ffffffffffffffffffffffffffffffffffffffff161415620000b257600080fd5b80600260006101000a81548173ffffffffffffffffffffffffffffffffffffffff021916908373ffffffffffffffffffffffffffffffffffffffff16021790555033600160006101000a81548173ffffffffffffffffffffffffffffffffffffffff021916908373ffffffffffffffffffffffffffffffffffffffff160217905550620001a26040518060400160405280600f81526020017f746f6b656e20616464726573733d3e0000000000000000000000000000000000815250600260009054906101000a900473ffffffffffffffffffffffffffffffffffffffff166200027560201b62000e3a1760201c565b50620004be565b600033905090565b60008060009054906101000a900473ffffffffffffffffffffffffffffffffffffffff169050816000806101000a81548173ffffffffffffffffffffffffffffffffffffffff021916908373ffffffffffffffffffffffffffffffffffffffff1602179055508173ffffffffffffffffffffffffffffffffffffffff168173ffffffffffffffffffffffffffffffffffffffff167f8be0079c531659141344cd1fd0a4f28419497f9722a3daafe3b4186f6b6457e060405160405180910390a35050565b6200031782826040516024016200028e929190620003d9565b6040516020818303038152906040527f319af333000000000000000000000000000000000000000000000000000000007bffffffffffffffffffffffffffffffffffffffffffffffffffffffff19166020820180517bffffffffffffffffffffffffffffffffffffffffffffffffffffffff83818316178352505050506200031b60201b60201c565b5050565b60008151905060006a636f6e736f6c652e6c6f679050602083016000808483855afa5050505050565b6000815190506200035581620004a4565b92915050565b6000602082840312156200036e57600080fd5b60006200037e8482850162000344565b91505092915050565b620003928162000429565b82525050565b6000620003a5826200040d565b620003b1818562000418565b9350620003c38185602086016200045d565b620003ce8162000493565b840191505092915050565b60006040820190508181036000830152620003f5818562000398565b905062000406602083018462000387565b9392505050565b600081519050919050565b600082825260208201905092915050565b600062000436826200043d565b9050919050565b600073ffffffffffffffffffffffffffffffffffffffff82169050919050565b60005b838110156200047d57808201518184015260208101905062000460565b838111156200048d576000848401525b50505050565b6000601f19601f8301169050919050565b620004af8162000429565b8114620004bb57600080fd5b50565b61155580620004ce6000396000f3fe60806040526004361061012e5760003560e01c8063715018a6116100ab57806395d2ab7c1161006f57806395d2ab7c1461039d578063a364c0b2146103c8578063d0febe4c146103f3578063d6bdbf78146103fd578063ec81b48314610428578063f2fde38b146104535761013d565b8063715018a6146102ee5780638129fc1c1461030557806389350cc41461031c5780638da5cb5b146103475780638fcd843c146103725761013d565b80635fbe4d1d116100f25780635fbe4d1d1461021757806360659a921461024257806369fda51f1461026d5780636ad89296146102985780636cd2bc8f146102c35761013d565b806314174f3314610142578063158ef93e1461016b57806322f3e2d4146101965780633221c93f146101c157806352e5c073146101ec5761013d565b3661013d5761013b61047c565b005b600080fd5b34801561014e57600080fd5b5061016960048036038101906101649190611087565b610735565b005b34801561017757600080fd5b5061018061092e565b60405161018d91906111ec565b60405180910390f35b3480156101a257600080fd5b506101ab610941565b6040516101b891906111ec565b60405180910390f35b3480156101cd57600080fd5b506101d661095f565b6040516101e391906111a8565b60405180910390f35b3480156101f857600080fd5b50610201610985565b60405161020e9190611297565b60405180910390f35b34801561022357600080fd5b5061022c61098b565b60405161023991906111a8565b60405180910390f35b34801561024e57600080fd5b506102576109b1565b6040516102649190611297565b60405180910390f35b34801561027957600080fd5b50610282610a85565b60405161028f9190611297565b60405180910390f35b3480156102a457600080fd5b506102ad610a8d565b6040516102ba9190611297565b60405180910390f35b3480156102cf57600080fd5b506102d8610a95565b6040516102e59190611297565b60405180910390f35b3480156102fa57600080fd5b50610303610a9b565b005b34801561031157600080fd5b5061031a610b23565b005b34801561032857600080fd5b50610331610c38565b60405161033e9190611297565b60405180910390f35b34801561035357600080fd5b5061035c610c3e565b60405161036991906111a8565b60405180910390f35b34801561037e57600080fd5b50610387610c67565b6040516103949190611297565b60405180910390f35b3480156103a957600080fd5b506103b2610c6f565b6040516103bf9190611297565b60405180910390f35b3480156103d457600080fd5b506103dd610c7d565b6040516103ea9190611297565b60405180910390f35b6103fb61047c565b005b34801561040957600080fd5b50610412610c85565b60405161041f9190611297565b60405180910390f35b34801561043457600080fd5b5061043d610d3c565b60405161044a9190611297565b60405180910390f35b34801561045f57600080fd5b5061047a60048036038101906104759190611035565b610d42565b005b610484610941565b61048d57600080fd5b600034905060006104a9610a8c83610ed690919063ffffffff16565b905080600260009054906101000a900473ffffffffffffffffffffffffffffffffffffffff1673ffffffffffffffffffffffffffffffffffffffff166370a08231600160009054906101000a900473ffffffffffffffffffffffffffffffffffffffff166040518263ffffffff1660e01b815260040161052991906111a8565b60206040518083038186803b15801561054157600080fd5b505afa158015610555573d6000803e3d6000fd5b505050506040513d601f19601f8201168201806040525081019061057991906110b0565b10156105ba576040517f08c379a00000000000000000000000000000000000000000000000000000000081526004016105b190611237565b60405180910390fd5b600260009054906101000a900473ffffffffffffffffffffffffffffffffffffffff1673ffffffffffffffffffffffffffffffffffffffff1663a9059cbb33836040518363ffffffff1660e01b81526004016106179291906111c3565b602060405180830381600087803b15801561063157600080fd5b505af1158015610645573d6000803e3d6000fd5b505050506040513d601f19601f82011682018060405250810190610669919061105e565b50803373ffffffffffffffffffffffffffffffffffffffff167f61b2357f75eed32a19939598e4c7563879bacd78e9d957c31f0f9f70a3fd14a060405160405180910390a36000600160009054906101000a900473ffffffffffffffffffffffffffffffffffffffff1690508073ffffffffffffffffffffffffffffffffffffffff166108fc479081150290604051600060405180830381858888f1935050505015801561071b573d6000803e3d6000fd5b503460035461072a91906112ce565b600381905550505050565b61073d610eec565b73ffffffffffffffffffffffffffffffffffffffff1661075b610c3e565b73ffffffffffffffffffffffffffffffffffffffff16146107b1576040517f08c379a00000000000000000000000000000000000000000000000000000000081526004016107a890611277565b60405180910390fd5b80600260009054906101000a900473ffffffffffffffffffffffffffffffffffffffff1673ffffffffffffffffffffffffffffffffffffffff166370a08231336040518263ffffffff1660e01b815260040161080d91906111a8565b60206040518083038186803b15801561082557600080fd5b505afa158015610839573d6000803e3d6000fd5b505050506040513d601f19601f8201168201806040525081019061085d91906110b0565b101561086857600080fd5b600260009054906101000a900473ffffffffffffffffffffffffffffffffffffffff1673ffffffffffffffffffffffffffffffffffffffff1663a9059cbb33670de0b6b3a7640000846108bb9190611324565b6040518363ffffffff1660e01b81526004016108d89291906111c3565b602060405180830381600087803b1580156108f257600080fd5b505af1158015610906573d6000803e3d6000fd5b505050506040513d601f19601f8201168201806040525081019061092a919061105e565b5050565b600460009054906101000a900460ff1681565b600060011515600460009054906101000a900460ff16151514905090565b600160009054906101000a900473ffffffffffffffffffffffffffffffffffffffff1681565b610a8c81565b600260009054906101000a900473ffffffffffffffffffffffffffffffffffffffff1681565b6000600260009054906101000a900473ffffffffffffffffffffffffffffffffffffffff1673ffffffffffffffffffffffffffffffffffffffff166370a08231600160009054906101000a900473ffffffffffffffffffffffffffffffffffffffff166040518263ffffffff1660e01b8152600401610a3091906111a8565b60206040518083038186803b158015610a4857600080fd5b505afa158015610a5c573d6000803e3d6000fd5b505050506040513d601f19601f82011682018060405250810190610a8091906110b0565b905090565b6362d9780081565b6362d03d8081565b6108fc81565b610aa3610eec565b73ffffffffffffffffffffffffffffffffffffffff16610ac1610c3e565b73ffffffffffffffffffffffffffffffffffffffff1614610b17576040517f08c379a0000000000000000000000000000000000000000000000000000000008152600401610b0e90611277565b60405180910390fd5b610b216000610ef4565b565b610b2b610eec565b73ffffffffffffffffffffffffffffffffffffffff16610b49610c3e565b73ffffffffffffffffffffffffffffffffffffffff1614610b9f576040517f08c379a0000000000000000000000000000000000000000000000000000000008152600401610b9690611277565b60405180910390fd5b610bde6040518060400160405280600281526020017f686900000000000000000000000000000000000000000000000000000000000081525033610e3a565b60001515600460009054906101000a900460ff16151514610bfe57600080fd5b69d3c21bcecceda1000000610c116109b1565b11610c1b57600080fd5b6001600460006101000a81548160ff021916908315150217905550565b6109c481565b60008060009054906101000a900473ffffffffffffffffffffffffffffffffffffffff16905090565b6362c7030081565b69d3c21bcecceda100000081565b6362bdc88081565b600080600260009054906101000a900473ffffffffffffffffffffffffffffffffffffffff1673ffffffffffffffffffffffffffffffffffffffff166370a08231306040518263ffffffff1660e01b8152600401610ce391906111a8565b60206040518083038186803b158015610cfb57600080fd5b505afa158015610d0f573d6000803e3d6000fd5b505050506040513d601f19601f82011682018060405250810190610d3391906110b0565b90508091505090565b61138881565b610d4a610eec565b73ffffffffffffffffffffffffffffffffffffffff16610d68610c3e565b73ffffffffffffffffffffffffffffffffffffffff1614610dbe576040517f08c379a0000000000000000000000000000000000000000000000000000000008152600401610db590611277565b60405180910390fd5b600073ffffffffffffffffffffffffffffffffffffffff168173ffffffffffffffffffffffffffffffffffffffff161415610e2e576040517f08c379a0000000000000000000000000000000000000000000000000000000008152600401610e2590611257565b60405180910390fd5b610e3781610ef4565b50565b610ed28282604051602401610e50929190611207565b6040516020818303038152906040527f319af333000000000000000000000000000000000000000000000000000000007bffffffffffffffffffffffffffffffffffffffffffffffffffffffff19166020820180517bffffffffffffffffffffffffffffffffffffffffffffffffffffffff8381831617835250505050610fb8565b5050565b60008183610ee49190611324565b905092915050565b600033905090565b60008060009054906101000a900473ffffffffffffffffffffffffffffffffffffffff169050816000806101000a81548173ffffffffffffffffffffffffffffffffffffffff021916908373ffffffffffffffffffffffffffffffffffffffff1602179055508173ffffffffffffffffffffffffffffffffffffffff168173ffffffffffffffffffffffffffffffffffffffff167f8be0079c531659141344cd1fd0a4f28419497f9722a3daafe3b4186f6b6457e060405160405180910390a35050565b60008151905060006a636f6e736f6c652e6c6f679050602083016000808483855afa5050505050565b600081359050610ff0816114da565b92915050565b600081519050611005816114f1565b92915050565b60008135905061101a81611508565b92915050565b60008151905061102f81611508565b92915050565b60006020828403121561104757600080fd5b600061105584828501610fe1565b91505092915050565b60006020828403121561107057600080fd5b600061107e84828501610ff6565b91505092915050565b60006020828403121561109957600080fd5b60006110a78482850161100b565b91505092915050565b6000602082840312156110c257600080fd5b60006110d084828501611020565b91505092915050565b6110e28161137e565b82525050565b6110f181611390565b82525050565b6000611102826112b2565b61110c81856112bd565b935061111c8185602086016113c6565b61112581611428565b840191505092915050565b600061113d6012836112bd565b915061114882611439565b602082019050919050565b60006111606026836112bd565b915061116b82611462565b604082019050919050565b60006111836020836112bd565b915061118e826114b1565b602082019050919050565b6111a2816113bc565b82525050565b60006020820190506111bd60008301846110d9565b92915050565b60006040820190506111d860008301856110d9565b6111e56020830184611199565b9392505050565b600060208201905061120160008301846110e8565b92915050565b6000604082019050818103600083015261122181856110f7565b905061123060208301846110d9565b9392505050565b6000602082019050818103600083015261125081611130565b9050919050565b6000602082019050818103600083015261127081611153565b9050919050565b6000602082019050818103600083015261129081611176565b9050919050565b60006020820190506112ac6000830184611199565b92915050565b600081519050919050565b600082825260208201905092915050565b60006112d9826113bc565b91506112e4836113bc565b9250827fffffffffffffffffffffffffffffffffffffffffffffffffffffffffffffffff03821115611319576113186113f9565b5b828201905092915050565b600061132f826113bc565b915061133a836113bc565b9250817fffffffffffffffffffffffffffffffffffffffffffffffffffffffffffffffff0483118215151615611373576113726113f9565b5b828202905092915050565b60006113898261139c565b9050919050565b60008115159050919050565b600073ffffffffffffffffffffffffffffffffffffffff82169050919050565b6000819050919050565b60005b838110156113e45780820151818401526020810190506113c9565b838111156113f3576000848401525b50505050565b7f4e487b7100000000000000000000000000000000000000000000000000000000600052601160045260246000fd5b6000601f19601f8301169050919050565b7f6e6f7420656e676f75676820746f6b656e730000000000000000000000000000600082015250565b7f4f776e61626c653a206e6577206f776e657220697320746865207a65726f206160008201527f6464726573730000000000000000000000000000000000000000000000000000602082015250565b7f4f776e61626c653a2063616c6c6572206973206e6f7420746865206f776e6572600082015250565b6114e38161137e565b81146114ee57600080fd5b50565b6114fa81611390565b811461150557600080fd5b50565b611511816113bc565b811461151c57600080fd5b5056fea2646970667358221220622b0b7da8186d1c1966e111243c5942e73153fe384177642aa7a255a54c786d64736f6c63430008040033",
  "linkReferences": {},
  "deployedLinkReferences": {}
}